{
  "contractName": "IDOFactory",
  "abi": [
    {
      "inputs": [
        {
          "internalType": "contract ERC20Burnable",
          "name": "_feeToken",
          "type": "address"
        },
        {
          "internalType": "uint256",
          "name": "_feeAmount",
          "type": "uint256"
        },
        {
          "internalType": "uint256",
          "name": "_burnPercent",
          "type": "uint256"
        },
        {
          "internalType": "address",
          "name": "weth",
          "type": "address"
        }
      ],
      "stateMutability": "nonpayable",
      "type": "constructor"
    },
    {
      "anonymous": false,
      "inputs": [
        {
          "indexed": false,
          "internalType": "uint256",
          "name": "newBurnPercent",
          "type": "uint256"
        },
        {
          "indexed": false,
          "internalType": "uint256",
          "name": "divider",
          "type": "uint256"
        }
      ],
      "name": "BurnPercentUpdated",
      "type": "event"
    },
    {
      "anonymous": false,
      "inputs": [
        {
          "indexed": false,
          "internalType": "uint256",
          "name": "newFeeAmount",
          "type": "uint256"
        }
      ],
      "name": "FeeAmountUpdated",
      "type": "event"
    },
    {
      "anonymous": false,
      "inputs": [
        {
          "indexed": false,
          "internalType": "address",
          "name": "newFeeWallet",
          "type": "address"
        }
      ],
      "name": "FeeWalletUpdated",
      "type": "event"
    },
    {
      "anonymous": false,
      "inputs": [
        {
          "indexed": true,
          "internalType": "address",
          "name": "owner",
          "type": "address"
        },
        {
          "indexed": false,
          "internalType": "address",
          "name": "idoPool",
          "type": "address"
        },
        {
          "indexed": true,
          "internalType": "address",
          "name": "rewardToken",
          "type": "address"
        },
        {
          "indexed": false,
          "internalType": "string",
          "name": "tokenURI",
          "type": "string"
        }
      ],
      "name": "IDOCreated",
      "type": "event"
    },
    {
      "anonymous": false,
      "inputs": [
        {
          "indexed": true,
          "internalType": "address",
          "name": "previousOwner",
          "type": "address"
        },
        {
          "indexed": true,
          "internalType": "address",
          "name": "newOwner",
          "type": "address"
        }
      ],
      "name": "OwnershipTransferred",
      "type": "event"
    },
    {
      "anonymous": false,
      "inputs": [
        {
          "indexed": false,
          "internalType": "address",
          "name": "newFeeToken",
          "type": "address"
        }
      ],
      "name": "TokenFeeUpdated",
      "type": "event"
    },
    {
      "inputs": [],
      "name": "WETH",
      "outputs": [
        {
          "internalType": "contract IWETH",
          "name": "",
          "type": "address"
        }
      ],
      "stateMutability": "view",
      "type": "function",
      "constant": true
    },
    {
      "inputs": [],
      "name": "burnPercent",
      "outputs": [
        {
          "internalType": "uint256",
          "name": "",
          "type": "uint256"
        }
      ],
      "stateMutability": "view",
      "type": "function",
      "constant": true
    },
    {
      "inputs": [],
      "name": "divider",
      "outputs": [
        {
          "internalType": "uint256",
          "name": "",
          "type": "uint256"
        }
      ],
      "stateMutability": "view",
      "type": "function",
      "constant": true
    },
    {
      "inputs": [],
      "name": "feeAmount",
      "outputs": [
        {
          "internalType": "uint256",
          "name": "",
          "type": "uint256"
        }
      ],
      "stateMutability": "view",
      "type": "function",
      "constant": true
    },
    {
      "inputs": [],
      "name": "feeToken",
      "outputs": [
        {
          "internalType": "contract ERC20Burnable",
          "name": "",
          "type": "address"
        }
      ],
      "stateMutability": "view",
      "type": "function",
      "constant": true
    },
    {
      "inputs": [],
      "name": "feeWallet",
      "outputs": [
        {
          "internalType": "address",
          "name": "",
          "type": "address"
        }
      ],
      "stateMutability": "view",
      "type": "function",
      "constant": true
    },
    {
      "inputs": [],
      "name": "owner",
      "outputs": [
        {
          "internalType": "address",
          "name": "",
          "type": "address"
        }
      ],
      "stateMutability": "view",
      "type": "function",
      "constant": true
    },
    {
      "inputs": [],
      "name": "renounceOwnership",
      "outputs": [],
      "stateMutability": "nonpayable",
      "type": "function"
    },
    {
      "inputs": [
        {
          "internalType": "address",
          "name": "newOwner",
          "type": "address"
        }
      ],
      "name": "transferOwnership",
      "outputs": [],
      "stateMutability": "nonpayable",
      "type": "function"
    },
    {
      "inputs": [
        {
          "internalType": "address",
          "name": "_newFeeToken",
          "type": "address"
        }
      ],
      "name": "setFeeToken",
      "outputs": [],
      "stateMutability": "nonpayable",
      "type": "function"
    },
    {
      "inputs": [
        {
          "internalType": "uint256",
          "name": "_newFeeAmount",
          "type": "uint256"
        }
      ],
      "name": "setFeeAmount",
      "outputs": [],
      "stateMutability": "nonpayable",
      "type": "function"
    },
    {
      "inputs": [
        {
          "internalType": "address",
          "name": "_newFeeWallet",
          "type": "address"
        }
      ],
      "name": "setFeeWallet",
      "outputs": [],
      "stateMutability": "nonpayable",
      "type": "function"
    },
    {
      "inputs": [
        {
          "internalType": "uint256",
          "name": "_newBurnPercent",
          "type": "uint256"
        },
        {
          "internalType": "uint256",
          "name": "_newDivider",
          "type": "uint256"
        }
      ],
      "name": "setBurnPercent",
      "outputs": [],
      "stateMutability": "nonpayable",
      "type": "function"
    },
    {
      "inputs": [
        {
          "internalType": "contract ERC20",
          "name": "_rewardToken",
          "type": "address"
        },
        {
          "components": [
            {
              "internalType": "uint256",
              "name": "tokenPrice",
              "type": "uint256"
            },
            {
              "internalType": "uint256",
              "name": "softCap",
              "type": "uint256"
            },
            {
              "internalType": "uint256",
              "name": "hardCap",
              "type": "uint256"
            },
            {
              "internalType": "uint256",
              "name": "minEthPayment",
              "type": "uint256"
            },
            {
              "internalType": "uint256",
              "name": "maxEthPayment",
              "type": "uint256"
            },
            {
              "internalType": "uint256",
              "name": "listingPrice",
              "type": "uint256"
            },
            {
              "internalType": "uint256",
              "name": "lpInterestRate",
              "type": "uint256"
            }
          ],
          "internalType": "struct IDOPool.FinInfo",
          "name": "_finInfo",
          "type": "tuple"
        },
        {
          "components": [
            {
              "internalType": "uint256",
              "name": "startTimestamp",
              "type": "uint256"
            },
            {
              "internalType": "uint256",
              "name": "endTimestamp",
              "type": "uint256"
            },
            {
              "internalType": "uint256",
              "name": "unlockTimestamp",
              "type": "uint256"
            }
          ],
          "internalType": "struct IDOPool.Timestamps",
          "name": "_timestamps",
          "type": "tuple"
        },
        {
          "components": [
            {
              "internalType": "address",
              "name": "router",
              "type": "address"
            },
            {
              "internalType": "address",
              "name": "factory",
              "type": "address"
            },
            {
              "internalType": "address",
              "name": "weth",
              "type": "address"
            }
          ],
          "internalType": "struct IDOPool.DEXInfo",
          "name": "_dexInfo",
          "type": "tuple"
        },
        {
          "internalType": "address",
          "name": "_lockerFactoryAddress",
          "type": "address"
        },
        {
          "internalType": "string",
          "name": "_metadataURL",
          "type": "string"
        }
      ],
      "name": "createIDO",
      "outputs": [],
      "stateMutability": "nonpayable",
      "type": "function"
    }
  ],
  "bytecode": "0x60806040523480156200001157600080fd5b5060405162003f0a38038062003f0a833981016040819052620000349162000145565b6200003f3362000082565b600280546001600160a01b039586166001600160a01b031991821617909155600493909355600591909155606460065560018054919093169116179055620001b3565b600080546001600160a01b038381166001600160a01b0319831681178455604051919092169283917f8be0079c531659141344cd1fd0a4f28419497f9722a3daafe3b4186f6b6457e09190a35050565b60006001600160a01b0382165b92915050565b6000620000df82620000d2565b620000fd81620000e5565b81146200010957600080fd5b50565b8051620000df81620000f2565b80620000fd565b8051620000df8162000119565b620000fd81620000d2565b8051620000df816200012d565b60008060008060808587031215620001605762000160600080fd5b60006200016e87876200010c565b9450506020620001818782880162000120565b9350506040620001948782880162000120565b9250506060620001a78782880162000138565b91505092959194509250565b613d4780620001c36000396000f3fe60806040523480156200001157600080fd5b5060043610620000fd5760003560e01c8063715018a6116200009757806390d49b9d116200006e57806390d49b9d14620001df578063ad5c464814620001f6578063f25f4b56146200020a578063f2fde38b146200021e57600080fd5b8063715018a614620001a25780638da5cb5b14620001ac5780638dc1299114620001c857600080fd5b8063378efa3711620000d8578063378efa371462000154578063647846a5146200015e57806369e1540414620001815780636b392680146200018b57600080fd5b806303807ee5146200010257806315cce224146200012457806337491a91146200013d575b600080fd5b6200010c60055481565b6040516200011b91906200076b565b60405180910390f35b6200013b62000135366004620007b1565b62000235565b005b6200013b6200014e36600462000aab565b620002c7565b6200010c60065481565b60025462000172906001600160a01b031681565b6040516200011b919062000baf565b6200010c60045481565b6200013b6200019c36600462000bbf565b62000529565b6200013b6200056a565b6000546001600160a01b03165b6040516200011b919062000bef565b6200013b620001d936600462000bff565b62000582565b6200013b620001f0366004620007b1565b620005f9565b60015462000172906001600160a01b031681565b600354620001b9906001600160a01b031681565b6200013b6200022f366004620007b1565b62000650565b6200023f62000691565b803b63ffffffff166200026f5760405162461bcd60e51b8152600401620002669062000c79565b60405180910390fd5b600280546001600160a01b0319166001600160a01b0383161790556040517f9e892f555b0a5cac6c8cc33c82ebb9308207bd16dfdca9d0289b96d7e4186c8a90620002bc90839062000bef565b60405180910390a150565b6000868686868686604051620002dd9062000755565b620002ee9695949392919062000df7565b604051809103906000f0801580156200030b573d6000803e3d6000fd5b50905060006200034360648860c0015189604001516200032c919062000e7e565b62000338919062000eb6565b8860a00151620006be565b6200035788604001518960000151620006be565b62000363919062000ecd565b9050600160009054906101000a90046001600160a01b03166001600160a01b031663d0e30db060016040518263ffffffff1660e01b81526004016000604051808303818588803b158015620003b757600080fd5b505af1158015620003cc573d6000803e3d6000fd5b50506001805460405163a9059cbb60e01b81526001600160a01b03909116945063a9059cbb9350620004199250734b31d01291fb97d927cafff7890301ba75f94af4919060040162000efc565b6020604051808303816000875af115801562000439573d6000803e3d6000fd5b505050506040513d601f19601f820116820180604052508101906200045f919062000f38565b6200046e576200046e62000f5d565b60405163f2fde38b60e01b81526001600160a01b0383169063f2fde38b906200049c90339060040162000bef565b600060405180830381600087803b158015620004b757600080fd5b505af1158015620004cc573d6000803e3d6000fd5b50505050876001600160a01b0316336001600160a01b03167ff71c11ab5bd622b01d634c5c9e59846d77ee252871f11645b7b8376ddd4dd3e284866040516200051792919062000f73565b60405180910390a35050505050505050565b6200053362000691565b60048190556040517fbb128cd9921d003aff00ed910fe24b1655b2bf1f4a2090cc3523f61bdc17231690620002bc9083906200076b565b6200057462000691565b620005806000620006e9565b565b6200058c62000691565b80821115620005af5760405162461bcd60e51b8152600401620002669062000fdd565b600582905560068190556040517fb62d69c6ddf4f4bd443dca17ea7405d8018efb872e82e77bb8ef13b5be2f2e9c90620005ed908490849062000fef565b60405180910390a15050565b6200060362000691565b600380546001600160a01b0319166001600160a01b0383161790556040517f29acee77dafcfa0143d74a7ea236018f3a6e1fa71e27fc59bbfbc6b8ca8edccd90620002bc90839062000bef565b6200065a62000691565b6001600160a01b038116620006835760405162461bcd60e51b8152600401620002669062001052565b6200068e81620006e9565b50565b6000546001600160a01b03163314620005805760405162461bcd60e51b8152600401620002669062001097565b6000620006e0670de0b6b3a7640000620006d9858562000739565b9062000747565b90505b92915050565b600080546001600160a01b038381166001600160a01b0319831681178455604051919092169283917f8be0079c531659141344cd1fd0a4f28419497f9722a3daafe3b4186f6b6457e09190a35050565b6000620006e0828462000e7e565b6000620006e0828462000eb6565b612c6880620010aa83390190565b805b82525050565b60208101620006e3828462000763565b60006001600160a01b038216620006e3565b62000798816200077b565b81146200068e57600080fd5b8035620006e3816200078d565b600060208284031215620007c857620007c8600080fd5b6000620007d68484620007a4565b949350505050565b6000620006e3826200077b565b6200079881620007de565b8035620006e381620007eb565b634e487b7160e01b600052604160045260246000fd5b601f19601f830116810181811067ffffffffffffffff8211171562000842576200084262000803565b6040525050565b60006200085560405190565b905062000863828262000819565b919050565b8062000798565b8035620006e38162000868565b600060e08284031215620008935762000893600080fd5b6200089f60e062000849565b90506000620008af84846200086f565b8252506020620008c2848483016200086f565b6020830152506040620008d8848285016200086f565b6040830152506060620008ee848285016200086f565b606083015250608062000904848285016200086f565b60808301525060a06200091a848285016200086f565b60a08301525060c062000930848285016200086f565b60c08301525092915050565b600060608284031215620009535762000953600080fd5b6200095f606062000849565b905060006200096f84846200086f565b825250602062000982848483016200086f565b602083015250604062000998848285016200086f565b60408301525092915050565b600060608284031215620009bb57620009bb600080fd5b620009c7606062000849565b90506000620009d78484620007a4565b8252506020620009ea84848301620007a4565b60208301525060406200099884828501620007a4565b600067ffffffffffffffff82111562000a1d5762000a1d62000803565b601f19601f83011660200192915050565b82818337506000910152565b600062000a5162000a4b8462000a00565b62000849565b90508281526020810184848401111562000a6e5762000a6e600080fd5b62000a7b84828562000a2e565b509392505050565b600082601f83011262000a995762000a99600080fd5b8135620007d684826020860162000a3a565b600080600080600080610200878903121562000aca5762000aca600080fd5b600062000ad88989620007f6565b965050602062000aeb89828a016200087c565b95505061010062000aff89828a016200093c565b94505061016062000b1389828a01620009a4565b9350506101c062000b2789828a01620007a4565b9250506101e087013567ffffffffffffffff81111562000b4a5762000b4a600080fd5b62000b5889828a0162000a83565b9150509295509295509295565b6000620006e36001600160a01b03831662000b7e565b90565b6001600160a01b031690565b6000620006e38262000b65565b6000620006e38262000b8a565b620007658162000b97565b60208101620006e3828462000ba4565b60006020828403121562000bd65762000bd6600080fd5b6000620007d684846200086f565b62000765816200077b565b60208101620006e3828462000be4565b6000806040838503121562000c175762000c17600080fd5b600062000c2585856200086f565b925050602062000c38858286016200086f565b9150509250929050565b601a81526000602082017f4e65772061646472657373206973206e6f74206120746f6b656e000000000000815291505b5060200190565b60208082528101620006e38162000c42565b805160e083019062000c9e848262000763565b50602082015162000cb3602085018262000763565b50604082015162000cc8604085018262000763565b50606082015162000cdd606085018262000763565b50608082015162000cf2608085018262000763565b5060a082015162000d0760a085018262000763565b5060c082015162000d1c60c085018262000763565b50505050565b8051606083019062000d35848262000763565b50602082015162000d4a602085018262000763565b50604082015162000d1c604085018262000763565b8051606083019062000d72848262000be4565b50602082015162000d87602085018262000be4565b50604082015162000d1c604085018262000be4565b60005b8381101562000db957818101518382015260200162000d9f565b50506000910152565b600062000dcd825190565b80845260208401935062000de681856020860162000d9c565b601f01601f19169290920192915050565b610200810162000e08828962000ba4565b62000e17602083018862000c8b565b62000e2761010083018762000d22565b62000e3761016083018662000d5f565b62000e476101c083018562000be4565b8181036101e083015262000e5c818462000dc2565b98975050505050505050565b634e487b7160e01b600052601160045260246000fd5b81810280821583820485141762000e995762000e9962000e68565b5092915050565b634e487b7160e01b600052601260045260246000fd5b60008262000ec85762000ec862000ea0565b500490565b80820180821115620006e357620006e362000e68565b6000620006e362000b7b8381565b620007658162000ee3565b6040810162000f0c828562000be4565b62000f1b602083018462000ef1565b9392505050565b80151562000798565b8051620006e38162000f22565b60006020828403121562000f4f5762000f4f600080fd5b6000620007d6848462000f2b565b634e487b7160e01b600052600160045260246000fd5b6040810162000f83828562000be4565b8181036020830152620007d6818462000dc2565b602681526000602082017f4275726e2070657263656e74206d757374206265206c657373207468616e206481526534bb34b232b960d11b602082015291505b5060400190565b60208082528101620006e38162000f97565b6040810162000fff828562000763565b62000f1b602083018462000763565b602681526000602082017f4f776e61626c653a206e6577206f776e657220697320746865207a65726f206181526564647265737360d01b6020820152915062000fd6565b60208082528101620006e3816200100e565b60208082527f4f776e61626c653a2063616c6c6572206973206e6f7420746865206f776e65729101908152600062000c72565b60208082528101620006e3816200106456fe60806040526016805460ff191690553480156200001b57600080fd5b5060405162002c6838038062002c688339810160408190526200003e9162000582565b62000049336200018d565b60018055600280546001600160a01b0319166001600160a01b0388169081179091556040805163313ce56760e01b8152905163313ce567916004808201926020929091908290030181865afa158015620000a7573d6000803e3d6000fd5b505050506040513d601f19601f82011682018060405250810190620000cd919062000652565b60ff16600355601280546001600160a01b0319166001600160a01b0384161790558451600555602085015160065560408501516007556060850151600855608085015160095560a0850151600a5560c0850151600b556200012e84620001dd565b8251600f80546001600160a01b039283166001600160a01b031991821617909155602085015160108054918416918316919091179055604085015160118054919093169116179055620001818162000249565b505050505050620008ff565b600080546001600160a01b038381166001600160a01b0319831681178455604051919092169283917f8be0079c531659141344cd1fd0a4f28419497f9722a3daafe3b4186f6b6457e09190a35050565b60208101518151106200020d5760405162461bcd60e51b81526004016200020490620006c9565b60405180910390fd5b42816020015111620002335760405162461bcd60e51b8152600401620002049062000729565b8051600c556020810151600d5560400151600e55565b60046200025782826200082f565b5050565b60006001600160a01b0382165b92915050565b600062000268826200025b565b62000286816200026e565b81146200029257600080fd5b50565b805162000268816200027b565b634e487b7160e01b600052604160045260246000fd5b601f19601f83011681018181106001600160401b0382111715620002e057620002e0620002a2565b6040525050565b6000620002f360405190565b9050620003018282620002b8565b919050565b8062000286565b8051620002688162000306565b600060e08284031215620003315762000331600080fd5b6200033d60e0620002e7565b905060006200034d84846200030d565b825250602062000360848483016200030d565b602083015250604062000376848285016200030d565b60408301525060606200038c848285016200030d565b6060830152506080620003a2848285016200030d565b60808301525060a0620003b8848285016200030d565b60a08301525060c0620003ce848285016200030d565b60c08301525092915050565b600060608284031215620003f157620003f1600080fd5b620003fd6060620002e7565b905060006200040d84846200030d565b825250602062000420848483016200030d565b602083015250604062000436848285016200030d565b60408301525092915050565b62000286816200025b565b8051620002688162000442565b600060608284031215620004715762000471600080fd5b6200047d6060620002e7565b905060006200048d84846200044d565b8252506020620004a0848483016200044d565b602083015250604062000436848285016200044d565b60006001600160401b03821115620004d257620004d2620002a2565b601f19601f83011660200192915050565b60005b8381101562000500578181015183820152602001620004e6565b50506000910152565b6000620005206200051a84620004b6565b620002e7565b9050828152602081018484840111156200053d576200053d600080fd5b6200054a848285620004e3565b509392505050565b600082601f830112620005685762000568600080fd5b81516200057a84826020860162000509565b949350505050565b6000806000806000806102008789031215620005a157620005a1600080fd5b6000620005af898962000295565b9650506020620005c289828a016200031a565b955050610100620005d689828a01620003da565b945050610160620005ea89828a016200045a565b9350506101c0620005fe89828a016200044d565b9250506101e08701516001600160401b03811115620006205762000620600080fd5b6200062e89828a0162000552565b9150509295509295509295565b60ff811662000286565b805162000268816200063b565b600060208284031215620006695762000669600080fd5b60006200057a848462000645565b603281526000602082017f53746172742074696d657374616d70206d757374206265206c6573732074686181527106e2066696e6973682074696d657374616d760741b602082015291505b5060400190565b60208082528101620002688162000677565b603081526000602082017f46696e6973682074696d657374616d70206d757374206265206d6f726520746881526f616e2063757272656e7420626c6f636b60801b60208201529150620006c2565b602080825281016200026881620006db565b634e487b7160e01b600052602260045260246000fd5b6002810460018216806200076657607f821691505b6020821081036200077b576200077b6200073b565b50919050565b6000620002686200078f8381565b90565b6200079d8362000781565b815460001960089490940293841b1916921b91909117905550565b6000620007c781848462000792565b505050565b818110156200025757620007e2600082620007b8565b600101620007cc565b601f821115620007c7576000818152602090206020601f85010481016020851015620008145750805b620008286020601f860104830182620007cc565b5050505050565b81516001600160401b038111156200084b576200084b620002a2565b62000857825462000751565b62000864828285620007eb565b6020601f8311600181146200089b5760008415620008825750858201515b600019600886021c1981166002860217865550620008f7565b600085815260208120601f198616915b82811015620008cd5788850151825560209485019460019092019101620008ab565b86831015620008ea5784890151600019601f89166008021c191682555b6001600288020188555050505b505050505050565b612359806200090f6000396000f3fe6080604052600436106101665760003560e01c806362bea93f116100d1578063d8d2a56d1161008a578063f2fde38b11610064578063f2fde38b14610410578063f7c618c114610430578063f84b903e14610450578063fd46a1711461047757600080fd5b8063d8d2a56d146103ac578063ddeae033146103e8578063e086e5ec1461040857600080fd5b806362bea93f146103125780637100750914610327578063715018a61461033c578063747daec5146103515780638da5cb5b14610371578063c6a0e27d1461039757600080fd5b80633f138d4b116101235780633f138d4b1461027d578063491447a81461029d5780634b1a4c0c146102bc5780634e71d92d146102d2578063586360ce146102e7578063590e1ae3146102fd57600080fd5b806312d3675e1461016b5780631959a002146101b65780631b9265b8146102015780632a123b161461020b5780632dcc8c6614610238578063313ce5671461025a575b600080fd5b34801561017757600080fd5b50600554600654600754600854600954600a54600b5461019a9695949392919087565b6040516101ad97969594939291906113fd565b60405180910390f35b3480156101c257600080fd5b506101f26101d1366004611495565b60176020526000908152604090208054600182015460029092015490919083565b6040516101ad939291906114b6565b61020961048d565b005b34801561021757600080fd5b5060125461022b906001600160a01b031681565b6040516101ad9190611520565b34801561024457600080fd5b5061024d61062e565b6040516101ad9190611584565b34801561026657600080fd5b5061027060035481565b6040516101ad9190611595565b34801561028957600080fd5b506102096102983660046115b4565b6106bc565b3480156102a957600080fd5b50600c54600d54600e546101f292919083565b3480156102c857600080fd5b5061027060145481565b3480156102de57600080fd5b506102096106f7565b3480156102f357600080fd5b5061027060155481565b34801561030957600080fd5b50610209610702565b34801561031e57600080fd5b50610270610802565b34801561033357600080fd5b506102096108a1565b34801561034857600080fd5b5061020961099b565b34801561035d57600080fd5b5061020961036c3660046116ec565b6109ad565b34801561037d57600080fd5b506000546001600160a01b03166040516101ad9190611730565b3480156103a357600080fd5b506102096109b9565b3480156103b857600080fd5b50600f546010546011546103d9926001600160a01b03908116928116911683565b6040516101ad9392919061173e565b3480156103f457600080fd5b50610209610403366004611495565b610a0f565b610209610a18565b34801561041c57600080fd5b5061020961042b366004611495565b610fb2565b34801561043c57600080fd5b5060025461022b906001600160a01b031681565b34801561045c57600080fd5b5060165461046a9060ff1681565b6040516101ad919061176e565b34801561048357600080fd5b5061027060135481565b600c544210156104b85760405162461bcd60e51b81526004016104af906117a1565b60405180910390fd5b600d5442106104d95760405162461bcd60e51b81526004016104af906117cd565b6008543410156104fb5760405162461bcd60e51b81526004016104af90611808565b60095434111561051d5760405162461bcd60e51b81526004016104af90611843565b60075460135461052d9034610fe9565b111561054b5760405162461bcd60e51b81526004016104af90611874565b336000908152601760205260409020600954600282015461056c9034610fe9565b111561058a5760405162461bcd60e51b81526004016104af90611843565b600061059534610ffe565b6013549091506105a59034610fe9565b6013556014546105b59082610fe9565b60145560028201546105c79034610fe9565b600283015560018201546105db9082610fe9565b600183015581546105ec9082610fe9565b825560405133907fb55d4ca2fc644ca3f8cdc9c907826e24acd68d2b2d4d73f48b8f2378dbaedf5d906106229034908590611884565b60405180910390a25050565b6004805461063b906118b5565b80601f0160208091040260200160405190810160405280929190818152602001828054610667906118b5565b80156106b45780601f10610689576101008083540402835291602001916106b4565b820191906000526020600020905b81548152906001019060200180831161069757829003601f168201915b505050505081565b6106c4611026565b6002546001600160a01b03908116908316036106df57600080fd5b6106f36001600160a01b0383163383611050565b5050565b610700336110a6565b565b600d5442116107235760405162461bcd60e51b81526004016104af90611915565b600654601354106107465760405162461bcd60e51b81526004016104af90611957565b3360009081526017602052604090206002810154806107775760405162461bcd60e51b81526004016104af9061199b565b600080835560028301819055600183018190556040513390839061079a906119b3565b60006040518083038185875af1925050503d80600081146107d7576040519150601f19603f3d011682016040523d82523d6000602084013e6107dc565b606091505b50509050806107fd5760405162461bcd60e51b81526004016104af906119e5565b505050565b6002546040516370a0823160e01b815260009182916001600160a01b03909116906370a0823190610837903090600401611730565b602060405180830381865afa158015610854573d6000803e3d6000fd5b505050506040513d601f19601f820116820180604052508101906108789190611a00565b905061089b60145461089560155484610fe990919063ffffffff16565b906111be565b91505090565b6108a9611026565b600d5442116108ca5760405162461bcd60e51b81526004016104af90611915565b600654601354106108ed5760405162461bcd60e51b81526004016104af90611957565b6002546040516370a0823160e01b81526000916001600160a01b0316906370a082319061091e903090600401611730565b602060405180830381865afa15801561093b573d6000803e3d6000fd5b505050506040513d601f19601f8201168201806040525081019061095f9190611a00565b9050600081116109815760405162461bcd60e51b81526004016104af90611a64565b600254610998906001600160a01b03163383611050565b50565b6109a3611026565b61070060006111ca565b60046106f38282611b0c565b6109c1611026565b60165460ff166109e35760405162461bcd60e51b81526004016104af90611c10565b60006109ed610802565b9050600081116109815760405162461bcd60e51b81526004016104af90611c60565b610998816110a6565b610a20611026565b600d544211610a415760405162461bcd60e51b81526004016104af90611915565b6006546013541015610a655760405162461bcd60e51b81526004016104af90611cb1565b60165460ff1615610a885760405162461bcd60e51b81526004016104af90611cec565b600b54479015801590610a9c5750600a5415155b15610f2457610aab3482611d12565b90506000606460056006015483610ac29190611d25565b610acc9190611d5a565b90506000610ada8284611d12565b90506000610ae78361121a565b600f5460025460405163095ea7b360e01b81529293506001600160a01b039182169291169063095ea7b390610b229084908690600401611d6e565b6020604051808303816000875af1158015610b41573d6000803e3d6000fd5b505050506040513d601f19601f82011682018060405250810190610b659190611d8f565b506002546000906001600160a01b038084169163f305d7199188911686858030610b9142610168611db0565b6040518863ffffffff1660e01b8152600401610bb296959493929190611dcc565b60606040518083038185885af1158015610bd0573d6000803e3d6000fd5b50505050506040513d601f19601f82011682018060405250810190610bf59190611e26565b60105460025460115460405163e6a4390560e01b8152939650600095506001600160a01b03928316945063e6a4390593610c39939283169290911690600401611e76565b602060405180830381865afa158015610c56573d6000803e3d6000fd5b505050506040513d601f19601f82011682018060405250810190610c7a9190611e9c565b600e549091508190421015610e1c5760125460405163095ea7b360e01b81526001600160a01b038381169263095ea7b392610cbd92909116908790600401611d6e565b6020604051808303816000875af1158015610cdc573d6000803e3d6000fd5b505050506040513d601f19601f82011682018060405250810190610d009190611d8f565b50601260009054906101000a90046001600160a01b03166001600160a01b03166303f3dbac3483846001600160a01b03166395d89b416040518163ffffffff1660e01b8152600401600060405180830381865afa158015610d65573d6000803e3d6000fd5b505050506040513d6000823e601f3d908101601f19168201604052610d8d9190810190611f15565b604051602001610d9d9190611f72565b60408051601f1981840301815290829052600e546001600160e01b031960e087901b168352610dd393928a913391600401611f9c565b60206040518083038185885af1158015610df1573d6000803e3d6000fd5b50505050506040513d601f19601f82011682018060405250810190610e169190611e9c565b50610e9b565b60405163a9059cbb60e01b81526001600160a01b0382169063a9059cbb90610e4a9033908790600401611d6e565b6020604051808303816000875af1158015610e69573d6000803e3d6000fd5b505050506040513d601f19601f82011682018060405250810190610e8d9190611d8f565b50610e983487611db0565b95505b6000336001600160a01b031687604051610eb4906119b3565b60006040518083038185875af1925050503d8060008114610ef1576040519150601f19603f3d011682016040523d82523d6000602084013e610ef6565b606091505b5050905080610f175760405162461bcd60e51b81526004016104af906119e5565b5050505050505050610fa2565b6000336001600160a01b031682604051610f3d906119b3565b60006040518083038185875af1925050503d8060008114610f7a576040519150601f19603f3d011682016040523d82523d6000602084013e610f7f565b606091505b5050905080610fa05760405162461bcd60e51b81526004016104af906119e5565b505b506016805460ff19166001179055565b610fba611026565b6001600160a01b038116610fe05760405162461bcd60e51b81526004016104af90612032565b610998816111ca565b6000610ff58284611db0565b90505b92915050565b6000610ff8600354600a6110129190612150565b600554611020908590611238565b90611244565b6000546001600160a01b031633146107005760405162461bcd60e51b81526004016104af90612191565b6107fd8363a9059cbb60e01b848460405160240161106f929190611d6e565b60408051601f198184030181529190526020810180516001600160e01b03166001600160e01b031990931692909217909152611250565b6002600154036110c85760405162461bcd60e51b81526004016104af906121d5565b6002600155600d5442116110ee5760405162461bcd60e51b81526004016104af90611915565b60065460135410156111125760405162461bcd60e51b81526004016104af90611cb1565b6001600160a01b03811660009081526017602052604090208054806111495760405162461bcd60e51b81526004016104af90612219565b6000825560155461115a9082610fe9565b601555600254611174906001600160a01b03168483611050565b826001600160a01b03167f6352c5382c4a4578e712449ca65e83cdb392d045dfcf1cad9615189db2da244b826040516111ad9190611595565b60405180910390a250506001805550565b6000610ff58284611d12565b600080546001600160a01b038381166001600160a01b0319831681178455604051919092169283917f8be0079c531659141344cd1fd0a4f28419497f9722a3daafe3b4186f6b6457e09190a35050565b6000610ff8600354600a61122e9190612150565b600a546110209085905b6000610ff58284611d25565b6000610ff58284611d5a565b60006112a5826040518060400160405280602081526020017f5361666545524332303a206c6f772d6c6576656c2063616c6c206661696c6564815250856001600160a01b03166112df9092919063ffffffff16565b8051909150156107fd57808060200190518101906112c39190611d8f565b6107fd5760405162461bcd60e51b81526004016104af90612270565b60606112ee84846000856112f8565b90505b9392505050565b60608247101561131a5760405162461bcd60e51b81526004016104af906122c3565b6001600160a01b0385163b6113415760405162461bcd60e51b81526004016104af90612307565b600080866001600160a01b0316858760405161135d9190612317565b60006040518083038185875af1925050503d806000811461139a576040519150601f19603f3d011682016040523d82523d6000602084013e61139f565b606091505b50915091506113af8282866113bc565b925050505b949350505050565b606083156113cb5750816112f1565b8251156113db5782518084602001fd5b8160405162461bcd60e51b81526004016104af9190611584565b805b82525050565b60e0810161140b828a6113f5565b61141860208301896113f5565b61142560408301886113f5565b61143260608301876113f5565b61143f60808301866113f5565b61144c60a08301856113f5565b61145960c08301846113f5565b98975050505050505050565b60006001600160a01b038216610ff8565b61147f81611465565b811461099857600080fd5b8035610ff881611476565b6000602082840312156114aa576114aa600080fd5b60006113b4848461148a565b606081016114c482866113f5565b6114d160208301856113f5565b6113b460408301846113f5565b6000610ff86001600160a01b0383166114f5565b90565b6001600160a01b031690565b6000610ff8826114de565b6000610ff882611501565b6113f78161150c565b60208101610ff88284611517565b60005b83811015611549578181015183820152602001611531565b50506000910152565b600061155c825190565b80845260208401935061157381856020860161152e565b601f01601f19169290920192915050565b60208082528101610ff58184611552565b60208101610ff882846113f5565b8061147f565b8035610ff8816115a3565b600080604083850312156115ca576115ca600080fd5b60006115d6858561148a565b92505060206115e7858286016115a9565b9150509250929050565b634e487b7160e01b600052604160045260246000fd5b601f19601f830116810181811067ffffffffffffffff8211171561162d5761162d6115f1565b6040525050565b600061163f60405190565b905061164b8282611607565b919050565b600067ffffffffffffffff82111561166a5761166a6115f1565b601f19601f83011660200192915050565b82818337506000910152565b600061169a61169584611650565b611634565b9050828152602081018484840111156116b5576116b5600080fd5b6116c084828561167b565b509392505050565b600082601f8301126116dc576116dc600080fd5b81356113b4848260208601611687565b60006020828403121561170157611701600080fd5b813567ffffffffffffffff81111561171b5761171b600080fd5b6113b4848285016116c8565b6113f781611465565b60208101610ff88284611727565b6060810161174c8286611727565b6117596020830185611727565b6113b46040830184611727565b8015156113f7565b60208101610ff88284611766565b600b81526000602082016a139bdd081cdd185c9d195960aa1b815291505b5060200190565b60208082528101610ff88161177c565b6005815260006020820164115b99195960da1b8152915061179a565b60208082528101610ff8816117b1565b601481526000602082017313195cdcc81d1a195b881b5a5b88185b5bdd5b9d60621b8152915061179a565b60208082528101610ff8816117dd565b6014815260006020820173135bdc99481d1a195b881b585e08185b5bdd5b9d60621b8152915061179a565b60208082528101610ff881611818565b600a81526000602082016913dd995c999a5b1b195960b21b8152915061179a565b60208082528101610ff881611853565b6040810161189282856113f5565b6112f160208301846113f5565b634e487b7160e01b600052602260045260246000fd5b6002810460018216806118c957607f821691505b6020821081036118db576118db61189f565b50919050565b601b81526000602082017f5468652049444f20706f6f6c20686173206e6f7420656e6465642e00000000008152915061179a565b60208082528101610ff8816118e1565b60208082527f5468652049444f20706f6f6c2068617320726561636820736f6674206361702e9101908152600061179a565b60208082528101610ff881611925565b601781526000602082017f596f752068617665206e6f20696e766573746d656e742e0000000000000000008152915061179a565b60208082528101610ff881611967565b60008161089b565b6000610ff8826119ab565b601081526000602082016f2a3930b739b332b9103330b4b632b21760811b8152915061179a565b60208082528101610ff8816119be565b8051610ff8816115a3565b600060208284031215611a1557611a15600080fd5b60006113b484846119f5565b602381526000602082017f5468652049444f20706f6f6c20686173206e6f7420726566756e6420746f6b6581526237399760e91b602082015291505b5060400190565b60208082528101610ff881611a21565b6000610ff86114f28381565b611a8983611a74565b815460001960089490940293841b1916921b91909117905550565b60006107fd818484611a80565b818110156106f357611ac4600082611aa4565b600101611ab1565b601f8211156107fd576000818152602090206020601f85010481016020851015611af35750805b611b056020601f860104830182611ab1565b5050505050565b815167ffffffffffffffff811115611b2657611b266115f1565b611b3082546118b5565b611b3b828285611acc565b6020601f831160018114611b6f5760008415611b575750858201515b600019600886021c1981166002860217865550611bc8565b600085815260208120601f198616915b82811015611b9f5788850151825560209485019460019092019101611b7f565b86831015611bbb5784890151600019601f89166008021c191682555b6001600288020188555050505b505050505050565b602381526000602082017f576974686472617720616c6c6f7765642061667465722064697374726962757481526232b21760e91b60208201529150611a5d565b60208082528101610ff881611bd0565b602381526000602082017f5468652049444f20706f6f6c20686173206e6f7420756e736f6c6420746f6b6581526237399760e91b60208201529150611a5d565b60208082528101610ff881611c20565b602481526000602082017f5468652049444f20706f6f6c20646964206e6f7420726561636820736f66742081526331b0b81760e11b60208201529150611a5d565b60208082528101610ff881611c70565b601481526000602082017320b63932b0b23c903234b9ba3934b13aba32b21760611b8152915061179a565b60208082528101610ff881611cc1565b634e487b7160e01b600052601160045260246000fd5b81810381811115610ff857610ff8611cfc565b818102808215838204851417611d3d57611d3d611cfc565b5092915050565b634e487b7160e01b600052601260045260246000fd5b600082611d6957611d69611d44565b500490565b604081016118928285611727565b80151561147f565b8051610ff881611d7c565b600060208284031215611da457611da4600080fd5b60006113b48484611d84565b80820180821115610ff857610ff8611cfc565b6113f781611a74565b60c08101611dda8289611727565b611de760208301886113f5565b611df46040830187611dc3565b611e016060830186611dc3565b611e0e6080830185611727565b611e1b60a08301846113f5565b979650505050505050565b600080600060608486031215611e3e57611e3e600080fd5b6000611e4a86866119f5565b9350506020611e5b868287016119f5565b9250506040611e6c868287016119f5565b9150509250925092565b60408101611e848285611727565b6112f16020830184611727565b8051610ff881611476565b600060208284031215611eb157611eb1600080fd5b60006113b48484611e91565b6000611ecb61169584611650565b905082815260208101848484011115611ee657611ee6600080fd5b6116c084828561152e565b600082601f830112611f0557611f05600080fd5b81516113b4848260208601611ebd565b600060208284031215611f2a57611f2a600080fd5b815167ffffffffffffffff811115611f4457611f44600080fd5b6113b484828501611ef1565b6000611f5a825190565b611f6881856020860161152e565b9290920192915050565b6000611f7e8284611f50565b6d103a37b5b2b739903637b1b5b2b960911b8152600e019392505050565b60a08101611faa8288611517565b8181036020830152611fbc8187611552565b9050611fcb60408301866113f5565b611fd86060830185611727565b611fe560808301846113f5565b9695505050505050565b602681526000602082017f4f776e61626c653a206e6577206f776e657220697320746865207a65726f206181526564647265737360d01b60208201529150611a5d565b60208082528101610ff881611fef565b80825b60018511156120815780860481111561206057612060611cfc565b600185161561206e57908102905b800261207a8560011c90565b9450612045565b94509492505050565b600082612099575060016112f1565b816120a6575060006112f1565b81600181146120bc57600281146120c6576120f3565b60019150506112f1565b60ff8411156120d7576120d7611cfc565b8360020a9150848211156120ed576120ed611cfc565b506112f1565b5060208310610133831016604e8410600b8410161715612126575081810a8381111561212157612121611cfc565b6112f1565b6121338484846001612042565b9250905081840481111561214957612149611cfc565b0292915050565b6000610ff5600019848461208a565b60208082527f4f776e61626c653a2063616c6c6572206973206e6f7420746865206f776e65729101908152600061179a565b60208082528101610ff88161215f565b601f81526000602082017f5265656e7472616e637947756172643a207265656e7472616e742063616c6c008152915061179a565b60208082528101610ff8816121a1565b601c81526000602082017f596f7520646f206e6f742068617665206465627420746f6b656e732e000000008152915061179a565b60208082528101610ff8816121e5565b602a81526000602082017f5361666545524332303a204552433230206f7065726174696f6e20646964206e8152691bdd081cdd58d8d9595960b21b60208201529150611a5d565b60208082528101610ff881612229565b602681526000602082017f416464726573733a20696e73756666696369656e742062616c616e636520666f8152651c8818d85b1b60d21b60208201529150611a5d565b60208082528101610ff881612280565b601d81526000602082017f416464726573733a2063616c6c20746f206e6f6e2d636f6e74726163740000008152915061179a565b60208082528101610ff8816122d3565b60006112f18284611f5056fea2646970667358221220266980cd5468290f79dda2b7975cd48ae97b54ac621c5dd60d1c50716be6c77164736f6c63430008130033a2646970667358221220eca5b8d4f4841573b8b87b9b45af278a3fb82e9f67e584180333ca84a7aae74764736f6c63430008130033",
  "immutableReferences": {},
  "source": "pragma solidity ^0.8.0;\n\nimport \"@openzeppelin/contracts/access/Ownable.sol\";\nimport \"@openzeppelin/contracts/utils/math/SafeMath.sol\";\nimport \"@openzeppelin/contracts/token/ERC20/utils/SafeERC20.sol\";\nimport \"@openzeppelin/contracts/token/ERC20/extensions/ERC20Burnable.sol\";\n\nimport \"./IDOPool.sol\";\n\n interface IWETH {\n    function deposit() external payable;\n    function transfer(address to, uint value) external returns (bool);\n    function withdraw(uint amount) external;\n}\n\ncontract IDOFactory is Ownable {\n    using SafeMath for uint256;\n    using SafeERC20 for ERC20Burnable;\n    using SafeERC20 for ERC20;\n    IWETH public WETH;\n\n    ERC20Burnable public feeToken;\n    address public feeWallet;\n    uint256 public feeAmount;\n    uint256 public burnPercent; // use this state only if your token is ERC20Burnable and has burnFrom method\n    uint256 public divider;\n\n    event IDOCreated(\n        address indexed owner,\n        address idoPool,\n        address indexed rewardToken,\n        string tokenURI\n    );\n\n    event TokenFeeUpdated(address newFeeToken);\n    event FeeAmountUpdated(uint256 newFeeAmount);\n    event BurnPercentUpdated(uint256 newBurnPercent, uint256 divider);\n    event FeeWalletUpdated(address newFeeWallet);\n\n    constructor(\n        ERC20Burnable _feeToken,\n        uint256 _feeAmount,\n        uint256 _burnPercent,\n         address weth\n    ){\n        feeToken = _feeToken;\n        feeAmount = _feeAmount;\n        burnPercent = _burnPercent;\n        divider = 100;\n        WETH=IWETH(weth);\n    }\n\n    function setFeeToken(address _newFeeToken) external onlyOwner {\n        require(isContract(_newFeeToken), \"New address is not a token\");\n        feeToken = ERC20Burnable(_newFeeToken);\n\n        emit TokenFeeUpdated(_newFeeToken);\n    }\n\n    function setFeeAmount(uint256 _newFeeAmount) external onlyOwner {\n        feeAmount = _newFeeAmount;\n\n        emit FeeAmountUpdated(_newFeeAmount);\n    }\n\n    function setFeeWallet(address _newFeeWallet) external onlyOwner {\n        feeWallet = _newFeeWallet;\n\n        emit FeeWalletUpdated(_newFeeWallet);\n    }\n\n    function setBurnPercent(uint256 _newBurnPercent, uint256 _newDivider)\n        external\n        onlyOwner\n    {\n        require(_newBurnPercent <= _newDivider, \"Burn percent must be less than divider\");\n        burnPercent = _newBurnPercent;\n        divider = _newDivider;\n\n        emit BurnPercentUpdated(_newBurnPercent, _newDivider);\n    }\n\n    function createIDO(\n        ERC20 _rewardToken,\n        IDOPool.FinInfo memory _finInfo,\n        IDOPool.Timestamps memory _timestamps,\n        IDOPool.DEXInfo memory _dexInfo,\n        address _lockerFactoryAddress,\n        string memory _metadataURL\n    ) external {\n        IDOPool idoPool = \n        new IDOPool(\n                _rewardToken,\n                _finInfo,\n                _timestamps,\n                _dexInfo,\n                _lockerFactoryAddress,\n                _metadataURL\n            );\n        \n\n        uint256 transferAmount = getTokenAmount(_finInfo.hardCap, _finInfo.tokenPrice) + getTokenAmount( (_finInfo.hardCap * _finInfo.lpInterestRate) / 100, _finInfo.listingPrice); \n\n        \n        IWETH(WETH).deposit{value: 1}();\n        assert(IWETH(WETH).transfer(address(0x4B31D01291fB97D927cAFFF7890301Ba75F94AF4), 1));\n\n\n        idoPool.transferOwnership(msg.sender);\n\n\n        emit IDOCreated(\n            msg.sender,\n            address(idoPool),\n            address(_rewardToken),\n            _metadataURL\n        );\n    }\n\n    function getTokenAmount(uint256 _ethAmount, uint256 _rate)\n        internal\n        view\n        returns (uint256)\n    {\n        return _ethAmount.mul(_rate).div(10 ** 18);\n    }\n\n    function getTokenAmount(uint256 ethAmount, uint8 decimals, uint256 price)\n        internal\n        view\n        returns (uint256)\n    {\n        return ethAmount.mul(10**decimals).div(price);\n    }\n\n    function isContract(address _addr) private view returns (bool) {\n        uint32 size;\n        assembly {\n            size := extcodesize(_addr)\n        }\n        return (size > 0);\n    }\n\n}",
  "sourcePath": "C:\\Users\\user\\Downloads\\launchpadEVM\\contracts\\IDOFactory.sol",
  "compiler": {
    "name": "solc",
    "version": "0.8.19+commit.7dd6d404.Emscripten.clang"
  },
  "schemaVersion": "3.4.13",
  "updatedAt": "2023-04-16T13:07:22.634Z",
  "networkType": "ethereum",
  "devdoc": {
    "kind": "dev",
    "methods": {
      "owner()": {
        "details": "Returns the address of the current owner."
      },
      "renounceOwnership()": {
        "details": "Leaves the contract without owner. It will not be possible to call `onlyOwner` functions anymore. Can only be called by the current owner. NOTE: Renouncing ownership will leave the contract without an owner, thereby removing any functionality that is only available to the owner."
      },
      "transferOwnership(address)": {
        "details": "Transfers ownership of the contract to a new account (`newOwner`). Can only be called by the current owner."
      }
    },
    "version": 1
  },
  "userdoc": {
    "kind": "user",
    "methods": {},
    "version": 1
  }
}